:020000020000FC
:040000000C94340028
:040014000C945700F1
:04000C000C947C00D4
:1000680035E03093680030E330936D0031E0309331
:100078006B00239A259A539A5298389A399A3A9A41
:100088003B9A209886E9B9E150E040E0DFEF7894A8
:1000980032E035BD30E034BDBDD081D095D012E01E
:1000A80097D042D0FFCFF89469B160736695669592
:1000B80066956695550F550F562B5B3479F0573872
:1000C80009F01895B03049F02FD05FEF883C839540
:1000D8008395BA958093B40018951895B436E9F3CA
:1000E80023D05FEF8A958A95B3958093B4001895CD
:1000F800F89443B178EC9AD04170CC0FC42BC370FC
:10010800C13009F01895DF3F11F0D03039F0D0E058
:1001180020E02093B00008D00C949700DFEF23E292
:100128002093B00001D0189511E052D012E050D0C1
:10013800E8E5F2E05DD015E84BD0E0E0A0E018D0AB
:100148000F2F5ED00E2F5CD005E25AD010EC40D0B5
:10015800EEE5F2E04DD015EC3BD0DF3F11F0D030AA
:1001680019F0E2E8F2E044C0ECE7F2E041C018958B
:10017800AAE02B2F2F93EE1B39E0FF1FBB1F3A95E8
:1001880031F420E3E20FF20F2F91B22F0895EE1F02
:10019800EA1B18F4EA0F8894F0CF0894EECF74E6BF
:1001A80045D012D013E314D012E312D018E210D0C5
:1001B80011E00ED01CE00CD016E00AD0089504D04F
:1001C80011E006D015D008952D9808952D9A089518
:1001D800FBDF129518B908D072E328D0129518B928
:1001E80003D072E323D008952B9A24D02B98089536
:1001F800EDDF0591002319F003D0FACF0895089593
:10020800E5DF029508B9F0DF15D0029508B9ECDFF3
:1002180011D0089523E22093B00029E02093B10083
:1002280027EC2093B3008093B400089503D07A9507
:10023800E9F7089505D000C035B330FFFDCF089524
:1002480035B3316035BB32E322E036BD25BD0895B4
:1002580044433A20000046616E3A200052504D2037
:100268004F4B20006C6F772052504D0073746F70A5
:0E027800706564004F46462020004F4E200067
:00000001FF
